:020000040800F2
:10000000E00C0020ED010008C7240008852100084D
:10001000C1240008291B0008573700080000000011
:10002000000000000000000000000000D92F0008C0
:10003000F11B000800000000452D000841310008B8
:10004000070200080702000807020008070200086C
:10005000070200080702000807020008070200085C
:10006000070200080702000807020008070200084C
:10007000070200080702000807020008070200083C
:10008000070200080702000807020008070200082C
:10009000070200080702000807020008070200081C
:1000A000070200080702000807020008070200080C
:1000B00007020008ED3100080702000807020008E7
:1000C00007020008070200080702000807020008EC
:1000D000070200083535000807020008070200087B
:1000E00007020008070200080702000807020008CC
:1000F00007020008070200080702000807020008BC
:1001000007020008070200080702000807020008AB
:10011000070200080702000807020008070200089B
:10012000070200080702000807020008070200088B
:1001300000F002F800F04AF80AA090E8000C8244AF
:100140008344AAF10107DA4501D100F03FF8AFF28C
:10015000090EBAE80F0013F0010F18BFFB1A43F0A5
:1001600001031847A85F0000C85F0000103A24BFD1
:1001700078C878C1FAD8520724BF30C830C144BF0C
:1001800004680C607047000000230024002500264E
:10019000103A28BF78C1FBD8520728BF30C148BFEA
:1001A0000B607047662904F05280642900F060807B
:1001B000002070471FB500F0EDFB04000020002177
:1001C00003F0DEFBE0601FBD10B510BD00F0E6FCE3
:1001D0001146FFF7EFFF03F039FB00F004FD03B415
:1001E000FFF7F2FF03BC03F0D9FA0000094880478B
:1001F00009480047FEE7FEE7FEE7FEE7FEE7FEE709
:10020000FEE7FEE7FEE7FEE704480549054A064B20
:10021000704700004931000831010008E006002065
:10022000E00C0020E0080020E008002070470000FB
:100230000FB4044910B503AA029800F099FB10BC52
:100240005DF814FB240000200FB41CB5074B06AA70
:100250007B4469460090059800F071FB00206946D8
:1002600000F080FB1CBC5DF814FB000011070000CF
:100270002DE9F0410646002410687529314616A57F
:1002800010D0AFF30080002802DA404213A507E047
:1002900031688A0701D512A502E0490704D511A5E6
:1002A000012401E0AFF3008000210A2206F12407B7
:1002B00009E0B0FBF2FCB0FBF2F302FB1C003030B3
:1002C00078541846491C0028F3D123462A46304664
:1002D000BDE8F04100F0C5B8000000002D000000AE
:1002E0002B000000200000002DE9F0474FF0000A2D
:1002F00089460446C0F820A02046E16888470028C7
:1003000076D0252806D0D4E901219047206A401CE8
:100310002062F1E7E168204600258847C4F81CA068
:1003200006460027C4F818A02A2E09D0304603F04C
:100330002EFA38B304EB8708303EC8F8186019E08D
:1003400059F8041B204604EB87029161E168884755
:10035000012F064618D1E069002820DA25F0200593
:100360001DE0D8F8180000EB800006EB40003038A4
:10037000C8F818002046E1688847064603F007FAE7
:100380000028EED1012F0AD02E2E08D12046E16898
:1003900088477F1C0646022F45F02005C4DBA06974
:1003A000002803DA404245F00105A061E80701D0CA
:1003B00025F01005B6B1A6F14100192802D8203663
:1003C00045F400654A463146204625604D46FFF714
:1003D000E9FE58B1012806D0ED1D25F0070000F117
:1003E000080989E704E005F1040985E730468AE752
:1003F000206ABDE8F08710B5203AC0F00B80B1E864
:100400001850203AA0E81850B1E81850A0E8185049
:10041000BFF4F5AF5FEA027C24BFB1E81850A0E852
:10042000185044BF18C918C0BDE810405FEA827C6C
:1004300024BF51F8043B40F8043B08BF7047D20783
:1004400028BF31F8023B48BF11F8012B28BF20F824
:10045000023B48BF00F8012B704770477047704758
:1004600070472DE9F0470D4699469246044600F143
:1004700024080168880604D5E06921F01001216094
:1004800000E00120A84201DD471B00E00027A16930
:100490007A1902EB0900081AA0612078C00602D47C
:1004A0002046AFF30080002608E0D4E901211AF8C5
:1004B00006009047206A401C761C20624E45F4DB03
:1004C0002078C0060AD52046AFF3008006E0D4E9C4
:1004D000012130209047206A401C2062381EA7F17D
:1004E0000107F4DC07E0D4E9012118F80500904782
:1004F000206A401C2062281EA5F10105F3DC20467D
:10050000AFF300802078000602D50220BDE8F08716
:100510000120FBE770472DE9FF4F0C461E464FF0C8
:10052000FF378BB0D2E90001DDF860800A908A467F
:10053000C1F30A5505B93D46002108464FF00000B9
:10054000BAF1000F00F4400005DA00EB80004FF430
:10055000400101EA50004FEA9059B9F1010F00DD66
:10056000B9460A9850EA4A000ED044F61050A5F257
:10057000FF3545432F14B8F1000F1ED07542291ED8
:100580001EDDC9F100021CE0B8F1010F4FF00000C0
:1005900001D0302103E0F24305E02154401CB04279
:1005A000FBDB30460022002121540B99C1F8088062
:1005B000C1E900200FB0BDE8F08FBD1B6D1CDEE768
:1005C0004A4600DA694206A800F06EFA06AB93E8E4
:1005D000070003AB83E8070050460A9900F04CFB84
:1005E0008DE80700A0F500501F3800900398002DFB
:1005F0000ADD42F21F014A460844002303A9039082
:10060000684600F0B5FD09E0A0F500504A461F38E5
:10061000002303A90390684600F0BFFD8DE80700A2
:100620000004000C03D04FF0FF30410800E01046FA
:10063000B8F1000F03D00022009215461EE0751E8F
:1006400005D400F0ABF9303262556D1EF9D5B346D2
:100650000122084302D000227F1C04E020783028C9
:1006600001D100227F1E002A099784D01DE0112DA0
:1006700007DA00F093F9303262556D1C50EA01023E
:10068000F5D1084302D00098C8B10EE00021681EE1
:1006900005E0235C625C63542254401E491C814285
:1006A000F7DBAB46A81B401E0990002004F80B00A6
:1006B0000B98099AC0F80880C0E9002B7AE7112648
:1006C0004FF0000857E72DE9F04F88460446D21D49
:1006D00022F0070191B0D1E90001CDE90A0103F050
:1006E00042F802460B98C00F01D02D2007E0206889
:1006F000810701D52B2002E0202101EAC000032A56
:10070000099001D0072A05DB03464146204600F048
:100710008BF90BE12078800601D5E06900E0062026
:10072000B8F1650F814606D0B8F1660F18D0B8F160
:10073000670F70D131E00020B9F1110F009001DB9B
:10074000112301E009F101030AAA01A90CA8FFF78E
:10075000E2FEDDE90C70002609F10105834647E061
:1007600001204B4600904FF000470AAA01A90CA8AF
:10077000FFF7D1FEDDE90DB00C995D46002610B9FA
:1007800009F101000D18B9EB050003D4C0F1FF36E3
:1007900009F10105A5EB09002BE0B9F1010F01DA20
:1007A0004FF001090020B9F1110F0090484601DD1A
:1007B000112300E003460AAA01A90CA8FFF7ABFE2B
:1007C000DDE90C704D4600268346207800070AD4E8
:1007D000AB4500DA5D4601A8012D04DD411911F891
:1007E000011C302907D04F4502DA17F1040F04DA53
:1007F000012082460FE06D1EEEE7002F02DCED1BAC
:100800003E4403E0781CA84200DD7D1CB81B00F1CB
:10081000010A4FF000472078000703D4AA4501DB06
:100820004FF0FF3A0021B7F1004F0DF143088DF86A
:10083000431024D002202B23002F01DA7F422D23E6
:100840000A21021EA0F1010000DC5FB197FBF1FC60
:1008500097FBF1F201FB1C7C17460CF1300C08F8F9
:1008600001CDEEE7A8F1010003702188090501D54B
:10087000452100E06521A0F1010800F8011C09985C
:100880000FA9A1EB0807FF1D00B10120411901EBE1
:10089000EA70A1693844081A401EA0612078C00699
:1008A00002D42046AFF30080099828B1D4E9012191
:1008B0009047206A401C20622078C00622D520463E
:1008C000AFF300801EE0002E04DBB34502DD01A87B
:1008D000805D00E03020D4E901219047206A401C6F
:1008E0002062761CAAF101005FEA000A0AD100F03A
:1008F00051F8C0680168405CD4E901219047206A42
:10090000401C2062281EA5F10105DCDC07E0D4E9CB
:10091000012118F8010B9047206A401C2062381E04
:10092000A7F10107F3DC2046AFF30080032011B0EC
:1009300041E6000001694A1C02610878704700B571
:100940008FB0CDE901310021059105497944CDE908
:10095000031011466846FFF7C7FC0FB000BD00004A
:10096000E5FFFFFF0A6802F8010B0A60704700000C
:10097000074B70B50D467B44FFF7E1FF0446284660
:1009800000F004F910B14FF0FF3070BD204670BD8B
:10099000B72E0000004870479C06002030B5B0F12B
:1009A0000A024FEA900E71F100034EEA817EB0EB2D
:1009B0000E0061EB91014FEA101E4EEA017E10EB32
:1009C0000E0041EB11114FEA102E4EEA016E10EBB2
:1009D0000E0041EB11214FEA104E4EEA014E10EB92
:1009E0000E0041EB1141401841F100014FEAD000E7
:1009F00040EA41704FEAD10110EB80054FEA8104D3
:100A000044EA907444EB01046D1944EB0404521B56
:100A1000A3414FF0000348BF0A3200D530BD401C4F
:100A200041F1000130BD00002DE9F0411F460446B0
:100A300003260168072A01F4006004DB08B116A54B
:100A400005E016A503E008B115A500E015A521F005
:100A500010002060A069C01EA0610FB1401EA061FF
:100A60002046AFF300804FB1D4E9012138469047CA
:100A7000206A401C2062C01C206206E0206AFAE75F
:100A8000D4E9012115F8010B9047761EF8D22046D3
:100A9000AFF30080BDE8F0814E414E006E616E0004
:100AA000494E4600696E66002DE9F04781461646BC
:100AB0008AB0354878440DC88DE80D003248784436
:100AC000801C03AC0DC884E80D0041F69B3008443F
:100AD000372190FBF1F290FBF1F5A5F1800501FBC8
:100AE00012041B3C02D56442012000E00020DFF824
:100AF00098A080460027FA44AAF1BE0A0EE0E0075B
:100B00000AD03246684607EB470101230AEB810110
:100B100000F043FB8DE8070064107F1C002CEED131
:100B2000194F7F44AE3F19E0E80715D007EB0410DA
:100B30000DF1180A90E80E008AE80E00C068F04235
:100B400001D1981908903246012306A903A800F0A4
:100B500024FB03AB83E807006D10641C002DE3D178
:100B60004FF0010332466946B8F1000F03A802D0E6
:100B700000F0FEFA01E000F010FBC9E90001C9F83D
:100B800008200AB0BDE8F0873C560000007B00F06A
:100B900080007047004870477C0600207546FFF7CC
:100BA000F9FFAE4605006946534620F0070085462A
:100BB00018B020B5FFF728FBBDE820404FF0000635
:100BC0004FF000074FF000084FF0000B21F0070135
:100BD000AC46ACE8C009ACE8C009ACE8C009ACE878
:100BE000C0098D46704710B50446AFF3008020461B
:100BF000BDE81040FFF7F3BA4FF0013C50F8042B6A
:100C000051F8043B9A4221D1A2EB0C03934313EA1F
:100C1000CC1317D150F8042B51F8043B9A4215D14C
:100C2000A2EB0C03934313EACC130BD150F8042B23
:100C300051F8043B9A4209D1A2EB0C03934313EA07
:100C4000CC13DBD04FF00000704700BFD01A01BAC0
:100C5000B1FA81F101F0180122FA01F0CB40C1F1A3
:100C60002001DBB2C0B2C01A2CFA01F3D11A9143B1
:100C700011EAC311E6D170475FEA400C08BF91F05A
:100C8000000F4FEA8C234FEAC12243EA51514FEA49
:100C90001C5018BF00F5F0404FEA300018BF41F07B
:100CA00000415FEA6C5C00F02980BCF1FF3F08BFA7
:100CB00040F080407047130C06BF12044FF0100C38
:100CC0004FF0000C130E04BF12020CF1080C130FAE
:100CD00004BF12010CF1040C930F04BF92000CF13D
:100CE000020CD30F04BF52000CF1010C11464FF05F
:100CF0000002A0F11F00A0EB0C00704711F0004FA4
:100D000008BF704731F000413FF4D5AF0B0C06BF70
:100D100009044FF0100C4FF0000C0B0E04BF090239
:100D20000CF1080C0B0F04BF09010CF1040C8B0F24
:100D300004BF89000CF1020CCB0F04BF49000CF179
:100D4000010CCCF12003A0EB0C0022FA03F302FA11
:100D50000CF241EA030100F10100704720F07F4CE2
:100D600080EA030023F07F47ACEB070303F57C53D5
:100D700000F0004003F1FF032DE980494FEA154BD5
:100D800009B44FEA144325EA0B4E24EA03480FF254
:100D9000042606EB132749083E785FEA320203FB7C
:100DA0000667C7F5000707FB06F64FEA54374FEA18
:100DB000D64606F1020607FB066CCCF1005C4FEA52
:100DC0001C472CEA074C07FB06F40CFB06F504EB6A
:100DD00015464FEA961634BF00204FF000404FEA08
:100DE000D13706FB07FC4FEA1C4C0CFB0BF7D21B60
:100DF00003FB0CF761EB07010CFB0EF7B0EB0740B0
:100E000072EB17420CFB08F734BFA2EB0742B2EBC0
:100E1000074261EB17414FEA0C444FEA910706FB8A
:100E200007FC4FEA1C4C0CFB0BF7B0EBC74072EB16
:100E3000573203FB0CF734BFA2EBC742B2EBC742F9
:100E400061EB57310CFB0EF7B0EBC70072EB57723A
:100E50000CFB08F734BFA2EBC702B2EBC70261EB91
:100E60005771039F4FEA816141EA921104EBCC0470
:100E70004FEAD1374FEA826206FB07FC42EA901242
:100E80004FEA80604FEA1C4C0CFB0BF7D21B03FBB4
:100E90000CF761EB07010CFB0EF7B0EB074072EBB0
:100EA00017420CFB08F734BFA2EB0742B2EB074234
:100EB00061EB17414FEA8C554FEA910704EB9C24F4
:100EC00006FB07FC4FEA1C4C0CFB0BF7B0EBC740D2
:100ED00072EB573203FB0CF734BFA2EBC742B2EB05
:100EE000C74261EB57310CFB0EF7B0EBC70072EB5A
:100EF00057720CFB08F734BFA2EBC702B2EBC70274
:100F000061EB577115EB4C254FEA816141EA921173
:100F10004FEA82624FEAD13742EA901206FB07FCA1
:100F200044F100044FEA80604FEA1C4C0CFB0BF7C5
:100F3000D21B03FB0CF761EB07010CFB0EF7B0EBC8
:100F4000074072EB17420CFB08F734BFA2EB0742D5
:100F5000B2EB074261EB174115EB1C154FEA8131EB
:100F600041EA92414FEA823242EA90424FEA8030AF
:100F70004FEA0C7644F1000448EA03434EEA0B487A
:100F80004FF0000EB2EB080C71EB030724BF624672
:100F900039464EEB0E0E4FF0000B001852414941FE
:100FA0004BEB0B0BB2EB080C71EB03077BF1000B67
:100FB00024BF624639464EEB0E0E4FF0000B001870
:100FC000524149414BEB0B0BB2EB080C71EB0307A1
:100FD0007BF1000B24BF624639464EEB0E0E51EA00
:100FE000020718BF46F0010616EB0E7655F1000217
:100FF00054F1000103D5BDE88901BDE80088BDE8D2
:101000008901BDE80048B619524141EB0101A3F145
:101010000103704780807F7E7D7C7B7A797877764C
:1010200076757473727171706F6E6E6D6C6C6B6AC5
:101030006A69686867666665646463636261616063
:10104000605F5F5E5E5D5D5C5C5B5B5A5A595958E0
:10105000585757565655555554545353525252514A
:10106000515050504F4F4F4E4E4D4D4D4C4C4C4BA0
:101070004B4B4A4A4A4949494848484747474746E7
:101080004646454545444444444343434342424223
:1010900042414141002B9C4630D477002BD01CB5F7
:1010A0004FEA370703B44FF010004FF01001BAF1C8
:1010B000000F06D0BCF1000FDCBF40F0080040F08C
:1010C00008014FF000000FBCBDE810400BF1010B10
:1010D000BBF1010F08BF5FEA170722BF12F101023F
:1010E00011F101014FF0004143F1000300F0004015
:1010F00043EA00007047F9D35708D0E746EA0646AE
:1011000013F1400F4FEA16461FDD13F1200FDFBF2A
:1011100016430A46002120335B42BED0C3F12007AC
:1011200046EA064602FA07F74FEA164646EA070677
:10113000C3F1200722FA03F201FA07F721FA03F1BB
:101140004FF0000342EA0702A7E746EA020646EA32
:1011500006464FEA164646EA0106BCBF46EA064680
:10116000360C4FF000034FF000024FF0000194E7FF
:101170002DE9804C9A46934670B491E8380007C830
:1011800031EA400C48BF34EA430C03D5FFF7E6FDD3
:10119000FFF780FFF0BCBDE8008C2DE9804C9A463B
:1011A000934670B491E8380007C810F0804F08BF2C
:1011B00013F0804F03D100F005F8FFF76BFFF0BC90
:1011C000BDE8008C20F07F4780EA030023F07F4CCD
:1011D00007EB0C03A3F57C5300F00040A3F1FE03E2
:1011E00092F0000F00F0B38095F0000F00F07780D0
:1011F0002DE901494FEA11404FEA144621EA00481F
:1012000000FB06FC24EA064708FB06F607FB08F885
:1012100000FB07F718EB06484CEB164C4FEA124B55
:1012200018EB07484FEA15464CEB174022EA0B4EE5
:101230000BFB06FC25EA06470EFB06F607FB0EFE37
:101240000BFB07F71EEB064E4CEB164C4FF000065F
:101250001EEB074E4CEB174B18EB0B0840F1000050
:1012600018EB0E0B58EB000840F100008F1A4FF0FE
:1012700000013CBFC943661B14BFB5EB040C002141
:101280003CBFC943F61B4FEA17444EEA8E0E27EACD
:1012900004454FEA1C4704FB07622CEA074C05FB98
:1012A00007F70CFB05F604FB0CFC16EB074642EBBC
:1012B000174216EB0C4642EB1C421BEB060658EBA2
:1012C0000202414146EA9E0601D5BDE80189B619F0
:1012D000524141EB0101A3F10103BDE801894FEA4D
:1012E00014454FEA114724EA054621EA074C05FB5D
:1012F00007F406FB07F70CFB06F105FB0CFC11EBF2
:10130000074144EB17444FEA124711EB0C4144EB01
:101310001C4422EA074C05FB07F206FB07F70CFB0F
:1013200006F605FB0CFC16EB074642EB174216EBE4
:101330000C4642EB1C456A1854F1000148BF704747
:10134000B619524141EB0101A3F10103704795F039
:10135000000F37D04FEA11424FEA144721EA024604
:1013600024EA074C02FB07F106FB07F70CFB06F427
:1013700002FB0CFC14EB074441EB17414FEA154705
:1013800014EB0C4441EB1C4125EA074C02FB07F52A
:1013900006FB07F70CFB06F602FB0CFC16EB0746F8
:1013A00045EB174516EB0C4645EB1C42121951F163
:1013B000000148BF7047B619524141EB0101A3F14A
:1013C000010370474FEA14454FEA114724EA0546E6
:1013D00021EA074C05FB07F106FB07F70CFB06F2B9
:1013E0004FF0000605FB0CFC12EB074241EB1741E6
:1013F00012EB0C4251EB1C4148BF7047921841EB75
:101400000101A3F1010370470146C86C80B2704727
:101410000246002013680B400BB1012000E00020C1
:10142000704700002DE9F04706460F4690461D46DE
:101430000A2D00DD0A2586F8AA50002419E057F885
:1014400024901049484602F051FE01D2DFF8349052
:101450000D49484602F04AFD01D2DFF82C9006F112
:10146000780040F8249018F8041028300155601CCA
:10147000C4B2AC42E3DB294604A0FEF7D9FEBDE8C6
:10148000F08700000000B4420000B4C2416E676CF7
:10149000652073657175656E636520636F6E66693F
:1014A0006775726564207769746820256420616EB1
:1014B000676C65730D0A0000014800687047000002
:1014C000480000207CB504460D4625700020606071
:1014D000A0601948E06040F6B830208200206061CA
:1014E000322084F86C001E2084F86D00002084F8FF
:1014F0006E0020676067114800214FF07E534FF067
:101500007C52CDE900100E4904F1180001F0C2FB35
:101510000C4A0D4904F1180001F0F7FB002184F892
:10152000AA1084F8AB1000F0C5FC00F045FD294678
:1015300006A0FEF77DFE7CBD0000A0400AD7233C3C
:10154000000020410000C8420000C8C2416E676C24
:101550006520636F6E74726F6C2073797374656D40
:1015600020696E697469616C697A65642C206D6F9D
:1015700064653A2025640D0A000000002DE9F04161
:101580000446204600F058FAD4E91C01401A0A2803
:1015900001D2BDE8F081206F606700F053FAA060CF
:1015A000207830B101280AD002280CD0032812D1AB
:1015B0000DE000F001FD002084F86E0011E02046EF
:1015C00000F03EF90DE0204600F050F809E020461A
:1015D00000F092F805E000F0EFFC032084F86E00C4
:1015E00000BF00BFD4E9010102F0BCFD804602F05B
:1015F000D9FA21F00041064602F0D8F905462846FE
:10160000E16802F073FC1AD894F86E0002281BD02F
:10161000606908B9206F60616169206F401A218A92
:10162000884211D3022084F86E00A06802F0BAFA52
:10163000064632460B4605A0FEF7FAFD04E0002000
:101640006061012084F86E0000BFA2E7416E676C04
:101650006520737461626C6520617420252E31668B
:1016600020646567726565730D0A00002DE9FC5FF3
:10167000044604F11800A16801F08BF9019094F878
:101680006C7094F86D0002F01DFC0090019902F05E
:1016900061FC8346174902F01FFB8246504602F068
:1016A000DDFB381A05B2504602F0D8FB384406B2CA
:1016B000002D00DA0025642D00DD6425002E00DAFF
:1016C0000026642E00DD642605F0FF0806F0FF0901
:1016D0004146002000F022FC4946012000F01EFC9B
:1016E0000021084600F0EEFB0021012000F0EAFB9B
:1016F000BDE8FC9F0000C8422DE9F84F044694F86D
:10170000AA0028B90021204600F0DCF8BDE8F88FD7
:1017100094F8AB1004F1780050F8219094F8AB10D5
:101720002830455C94F86E00022833D1B02000596F
:10173000216F081A4FF47A71B0FBF1FAAA453DD334
:1017400094F8AB00401C84F8AB0094F8AB1094F80C
:10175000AA00814207DB1CA0FEF76AFD002120469B
:1017600000F0B0F8D2E794F8AB1004F1780050F82C
:1017700021603146204600F0FFF80021B0200151E1
:10178000304602F00FFA07463A460B4615A0FEF720
:101790004FFD13E094F86E0002280FD1B0200059DD
:1017A00060B9B020216F0151484602F0FBF90746AD
:1017B0003A460B4615A00095FEF73AFD2046FFF786
:1017C00055FF00BFA2E70000416E676C652073659E
:1017D0007175656E636520636F6D706C65746564AB
:1017E0000D0A00004D6F76696E6720746F206E657C
:1017F000787420616E676C653A20252E316620640E
:101800006567726565730D0A00000000416E676CC4
:101810006520252E316620646567726565732073C7
:101820007461626C652C20686F6C64696E672066F9
:101830006F72202564207365636F6E64730D0A00F8
:101840002DE9F041054605F11800A96801F0A1F85D
:1018500080460021686802F049FC18D8404602F032
:10186000A1F921F00041064602F0DEF8C4B2642C72
:1018700000DD64242146012000F050FB00210846D1
:1018800000F04CFB0021012000F01CFB17E040465B
:1018900002F088F921F00041064602F0C5F8C4B212
:1018A000642C00DD64242146002000F037FB002179
:1018B000012000F033FB0021084600F003FBBDE8E7
:1018C000F081000070B504460D462078A8420DD086
:1018D00000F072FB2570002084F86E0004F11800FF
:1018E00001F00CFA294602A0FEF7A2FC70BD000030
:1018F000436F6E74726F6C206D6F646520636861F6
:101900006E67656420746F2025640D0A0000000076
:101910002DE9F84304460D469046E560A4F8108092
:10192000284602F03FF9064632460B4603A0CDF8A2
:101930000080FEF77DFCBDE8F8830000537461620F
:101940006C6520636F6E646974696F6E2075706476
:10195000617465643A204572726F723D252E31665E
:1019600020646567726565732C2054696D653D253B
:1019700064206D730D0A00002DE9F04104460D4608
:101980001049284602F0B2FB00D20E4D0E492846FF
:1019900002F0ACFA00D20C4D6560294604F1180043
:1019A00001F0CEF9012084F86E0000206061284625
:1019B00002F0F8F8064632460B4604A0FEF738FC63
:1019C000BDE8F0810000B4420000B4C25461726707
:1019D000657420616E676C652073657420746F2078
:1019E000252E316620646567726565730D0A0000F7
:1019F00010B5044600F0E0FA0020207084F86E0074
:101A000004F1180001F07AF901A0FEF711FC10BDF5
:101A1000416E676C6520636F6E74726F6C207374B7
:101A20006F707065640D0A0002480068401C01492F
:101A30000860704748000020014909680167704745
:101A4000480000202DE9F0474FF0000900251AE07A
:101A50004FF47A7A06E0AAF10100B0F1000A01D150
:101A6000BDE8F08702212948FFF7D2FC0028F2D018
:101A70002648FFF7C9FC264921F81500084630F82A
:101A8000150081446D1C082DE2DBC9F3CF0440F63C
:101A9000741084420DDCA4F6741002F0FBF9804649
:101AA0001C4902F057FA07461B4902F015F9064691
:101AB0000CE0A4F6741002F0EDF98046154902F02E
:101AC00049FA0746144902F007F90646114930461B
:101AD00002F00CFB00D20F4E1049304602F006FA1D
:101AE00000D20E4E304602F05DF821F0004107466C
:101AF00000220B4B01F0C6FF00D200260948016806
:101B0000304602F07BF806463046A9E70024014043
:101B1000C80100200000B4420000C8440000B4C264
:101B20000000E03F4000002000BFFEE710B588B095
:101B30000446012C06D0022C13D0032C1CD0042CFC
:101B40003FD124E001212348FFF7BCFE40F6B83224
:101B500021492048FFF7DCFE20491E48FFF70CFF13
:101B600034E001211B48FFF7ADFE40F6B8321A49B8
:101B70001848FFF7CDFE29E002211648FFF7A2FE24
:101B800041F2883216491348FFF7C2FE1EE01422C4
:101B9000144903A8FEF72FFC13A103C9CDE90101E5
:101BA00003210C48FFF78EFE052301AA03A909486B
:101BB000FFF738FC40F6B83209490648FFF7A8FE9F
:101BC00004E000210348FFF77DFE00BF00BF08B01E
:101BD00010BD00004C0000200000A0400000344276
:101BE00000004040544200080303030303000000C8
:101BF0007047000070B58AB0FFF724FF064600F07A
:101C0000A5FC5A48007820B1012842D002287DD195
:101C10005BE001200C2356A200210090084600F052
:101C200077FE57480078052831D2DFE800F0030C32
:101C3000151E270001200C2352A202210090002033
:101C400000F066FE23E001200C2351A20221009047
:101C5000002000F05DFE1AE001200C2350A20221BA
:101C60000090002000F054FE11E001200C2350A24F
:101C700002210090002000F04BFE08E001200C2320
:101C80004FA202210090002000F042FE00BF00BFE2
:101C900069E001200C234EA200210090084600F0CC
:101CA00037FE4E48006801F07DFF044622460B4691
:101CB0004BA102A8FEF7C8FA01200C2302AA0221B8
:101CC0000090002000F024FE4DE001200C2346A2ED
:101CD00000210090084600F01BFE304601F062FF34
:101CE000044622460B4642A102A8FEF7ADFA0120A7
:101CF0000C2302AA02210090002000F009FE3748C0
:101D0000006801F04FFF0446224600E02AE00B463F
:101D10003AA102A8FEF798FA01200C2302AA042196
:101D20000090002000F0F4FD15480078012818D13B
:101D3000FFF7C2FB34490968401A4FF47A71B0FBCF
:101D4000F1F40A2C0CD8224630A102A8FEF77CFA46
:101D500001200C2302AA06210090002000F0D8FDEB
:101D600000BF00E000BF00BF0AB070BD000000204F
:101D700053656C656374204D6F64653A0000000024
:101D80000100002049646C65204D6F64650000000F
:101D900053696E676C652046616E20343500000023
:101DA00053696E676C652046616E20416E79000054
:101DB0004475616C2046616E20416E790000000020
:101DC00053657175656E6365204D6F646500000035
:101DD00053657420416E676C653A00000400002072
:101DE000252E31660000000052756E6E696E670028
:101DF0004375723A252E3166000000005461723A34
:101E0000252E3166000000000800002054696D6531
:101E10003A2564730000000008B501210D2001F08F
:101E200061F80220ADF8000018208DF803000320AF
:101E30008DF8020069461D4800F00CF90420ADF849
:101E400000006946194800F005F94FF48060ADF8CC
:101E5000000010208DF803006946154800F0FAF8DC
:101E60004FF40060ADF800006946114800F0F2F848
:101E70004FF48050ADF8000069460D4800F0EAF8D4
:101E80004FF40050ADF800006946094800F0E2F850
:101E90004FF48040ADF800006946054800F0DAF8DC
:101EA0004FF48041024800F06BF908BD0008014082
:101EB000000C014010B5FFF7AFFF00F085F800F00F
:101EC0007BF810BD2DE9F04704468946114800F81B
:101ED000049024B9104D2E15A846EF1403E00E4DC2
:101EE000AE14A8466F14B9F1000F08D13146284648
:101EF00000F046F93946404600F040F907E0314627
:101F0000284600F03BF93946404600F039F9BDE873
:101F1000F087000046000020000C014070B5054627
:101F20000C46642C00DD64240D4844550D480068BF
:101F30004FF47A71B0FBF1F0401E60436421B0FBB6
:101F4000F1F086B22DB931464FF0804001F04FFAE2
:101F500004E031464FF0804001F04BFA70BD0000C4
:101F6000440000200C0000202DE9F04104464CB94B
:101F70000F4D2E152F464FF400680021300501F05B
:101F800036FA08E00A4DAE142F464FF400580021EF
:101F9000B00401F02EFA3146284600F0EFF8414631
:101FA000384600F0EBF8002002490855BDE8F08102
:101FB000000C01404400002010B50020FFF7D4FFC2
:101FC0000120FFF7D1FF10BD00B587B00121084601
:101FD00000F078FF1E4800684FF47A71B0FBF1F012
:101FE000401E80B2ADF814004720ADF8100000206C
:101FF000ADF81600ADF8120004A94FF0804001F0D2
:10200000FBF96020ADF800000120ADF802000020CF
:10201000ADF80600ADF8080069464FF0804001F0C9
:102020002DF90821C80601F07BF969464FF0804080
:1020300001F084F90821C80601F0D0F901218807D0
:1020400001F0E6F80121880701F0F1F807B000BDC2
:102050000C0000202DE9F04102460025002600205A
:1020600000230024002791F803C00CF00F0591F81D
:1020700003C00CF0100CBCF1000F03D091F802C0AB
:102080004CEA050591F800C0BCF1000F31D014688E
:1020900000202BE04FF0010C0CFA00F3B1F800C067
:1020A0000CEA03069E4220D183004FF00F0C0CFA7D
:1020B00003F7BC4305FA03FC4CEA040491F803C09F
:1020C000BCF1280F06D14FF0010C0CFA00FCC2F84D
:1020D00014C00AE091F803C0BCF1480F05D14FF0DD
:1020E000010C0CFA00FCC2F810C0401C0828D1D327
:1020F0001460B1F800C0BCF1FF0F34DD546800205B
:102100002EE000F1080C4FF0010808FA0CF3B1F8CA
:1021100000C00CEA03069E4221D183004FF00F0C51
:102120000CFA03F7BC4305FA03FC4CEA040491F8EB
:1021300003C0BCF1280F05D100F1080C08FA0CF817
:10214000C2F8148091F803C0BCF1480F07D100F128
:10215000080C4FF0010808FA0CF8C2F81080401C77
:102160000828CED35460BDE8F08102460020936871
:102170000B400BB1012000E0002070474161704727
:102180000161704700BFFEE710B520210B48FFF743
:10219000F7FF4FF480510A48FFF7F2FF00F042F8D2
:1021A00020210648FFF7EAFF00F03CF84FF4805189
:1021B0000348FFF7E3FF00F035F810BD00140140BD
:1021C0000020014010B520210748FFF7D7FF4FF44A
:1021D00080510648FFF7D4FF00F024F82021024880
:1021E000FFF7CEFF10BD00000014014000200140A9
:1021F00010B520210948FFF7C3FF00F013F84FF492
:1022000080510748FFF7BCFF00F00CF84FF48051F5
:102210000348FFF7B3FF00F005F810BD00140140BC
:1022200000200140032000BF011EA0F10102D0B236
:10223000FAD1704738B501210C2000F053FE02207E
:10224000ADF8000048208DF8030003208DF802004F
:1022500069462348FFF7FEFE0420ADF800006946FA
:102260001F48FFF7F7FE1020ADF8000069461D4833
:10227000FFF7F0FE2020ADF8000069461948FFF78F
:10228000E9FE0120ADF8000069461548FFF7E2FEBF
:10229000002421E0012004EB4401134A02F811005C
:1022A00004EB440102EB41014870002004EB4401BF
:1022B00002EB4101887004EB440102EB4101C8705C
:1022C00004EB440102EB4101087104EB440102EB11
:1022D00041014871601CC4B2062CDBDB38BD000034
:1022E000000C014000080140D801002070B50446F0
:1022F0000125062C22D2DFE804F02103090F151B6B
:1023000002211048FFF731FF054618E004210D486F
:10231000FFF72BFF054612E010210B48FFF725FFC2
:1023200005460CE020210848FFF71FFF054606E0A0
:1023300001210448FFF719FF054600E000BF00BF78
:10234000284670BD000C01400008014070B5002512
:102350000124ADE02046FFF7C9FF064604EB440028
:10236000564911F81000B04250D004EB440001EB84
:102370004000C078401C04EB4401504A02EB41018C
:10238000C87004EB4400114601EB4000C0780228FD
:102390002BDB04EB440011F8100004EB440102EBCA
:1023A0004101487004EB4400114601F81060002020
:1023B00004EB440102EB4101C87004EB44001146F8
:1023C00011F8100090B92546002004EB440102EBFF
:1023D0004101887004EB440102EB41014871012086
:1023E00004EB440102EB410108715FE004EB44009F
:1023F000324901EB40004079002857D0002004EB1F
:1024000044012E4A02EB410108714FE0002004EB29
:1024100044012A4A02EB4101C87004EB4400114612
:1024200011F8100028BB04EB440001EB4000807859
:10243000401C04EB440102EB4101887004EB4400B2
:10244000114601EB40008078642813DB04EB440064
:1024500001EB4000407968B9022004EB440102EB33
:1024600041010871012004EB440102EB4101487174
:1024700025461BE004EB4400104901EB4000807846
:10248000782813DB04EB440001EB4000407968B18D
:10249000032004EB4401094A02EB41010871642066
:1024A00004EB440102EB410188702546601CC4B274
:1024B000052C7FF74FAF284670BD0000D8010020E3
:1024C00000BFFEE77047704770B5002100230F2260
:1024D000C47804B3154C246804F4E064C4F5E064E3
:1024E000210AC1F10403CA40447804FA03F1847854
:1024F0001440214309010E4C0678A155047804F0DC
:102500001F050124AC4005786D11AD0005F1E025F3
:10251000C5F8004109E0047804F01F050124AC402F
:10252000044D0678761145F8264070BD0CED00E0AC
:1025300000E400E080E100E002490143024A11604A
:10254000704700000000FA050CED00E070B50024B3
:102550000CE0002506E00020074901EBC501085505
:10256000681CC5B2802DF6DB601CC4B2082CF0DB01
:1025700000F0FCF870BD0000FC010020F0B514462E
:102580000B46CF1701EB5777C7F3C702CF1701EB05
:102590005777FF10A1EBC707FEB20123B340DDB2AE
:1025A0004CB1134B03EBC0039B5C2B43104F07EB69
:1025B000C007BB541AE00E4B03EBC0039B5CDB432C
:1025C0000B4F07EBC007BB54094B03EBC0039B5CED
:1025D0002B43074F07EBC007BB54054B03EBC0036E
:1025E0009B5CDB43024F07EBC007BB54F0BD000010
:1025F000FC01002008B501214FF4907000F072FC3E
:102600004FF48050ADF8000014208DF80300032033
:102610008DF8020069465348FFF71CFD4FF48051C6
:102620005048FFF7ADFD2020ADF8000014208DF8D4
:10263000030003208DF8020069464B48FFF70AFDAE
:1026400020214948FFF79CFD1020ADF800008DF8CF
:10265000030003208DF8020069464348FFF7FAFCA7
:1026600010214148FFF78CFD10213F48FFF786FD00
:10267000C82001F0B7F810213B48FFF781FD002189
:10268000AE2000F06AF90021084600F066F900214A
:10269000102000F062F90021402000F05EF90021D6
:1026A000812000F05AF90021CF2000F056F90021D6
:1026B000A12000F052F90021C82000F04EF90021BD
:1026C000A62000F04AF90021A82000F046F90021D8
:1026D0003F2000F042F90021D32000F03EF9002114
:1026E000084600F03AF90021D52000F036F9002123
:1026F000802000F032F90021D92000F02EF90021CD
:10270000F12000F02AF90021DA2000F026F900215A
:10271000122000F022F90021DB2000F01EF9002138
:10272000402000F01AF90021202000F016F90021C5
:10273000022000F012F900218D2000F00EF9002196
:10274000142000F00AF90021A42000F006F900216D
:10275000A62000F002F9FFF7F9FE0021AF2000F0FB
:10276000FCF808BD002001400014014070B50024B1
:102770002BE004F1B001C8B2002100F0EEF8002116
:10278000084600F0EAF80021102000F0E6F8FFF714
:10279000FBFC782000F022FCFFF72AFD402000F02F
:1027A0001DFCFFF725FD002509E0094901EBC501E6
:1027B000085D00F013FCFFF71BFD681CC5B2802DFF
:1027C000F3DBFFF7FFFC601CC4B2082CD1DB70BD4B
:1027D000FC0100202DE9FE4F0746884692461C4624
:1027E0000197CDF80080082C02D14FF006091FE0B8
:1027F0002046E31704EB5373DB1021464FEAE47CD9
:1028000004EB5C7C4FEAEC0CA4EBCC0CBCF1000FAD
:1028100002D04FF0010C01E04FF0000C634422465F
:1028200004EBD27C4FEA6C0C03FB0CF303F0FF09C2
:10283000AAF12000C6B200255EE0082C07D106EB05
:1028400046002F4901EB400010F805B01DE00C2CAC
:1028500007D106EB46002B4901EB800010F805B0CC
:1028600013E0102C05D1284800EB061010F805B035
:102870000BE0182C07D106EBC600244901EB8000C1
:1028800010F805B001E0BDE8FE8F002002901CE0CA
:102890000BF0010028B1414638460C9AFFF76EFE56
:1028A00009E00C9808B9012000E0002002464146EA
:1028B0003846FFF763FE4FEA6B0B08F1010000F0AA
:1028C000FF080298401CC0B2029002980828DFDB83
:1028D000781CC7B2082C0BD004EBD4714A100199B4
:1028E000791A8A4204D1019F00980830C0B2009042
:1028F000DDF80080681CC5B24D459EDB00BFC2E715
:10290000684200089044000804490008F44E00089A
:102910002DE9F84106460F4614461D46DDF81C8099
:1029200013E0CDF8008022782B4639463046FFF779
:1029300051FF082D02D1B01DC6B205E0284605EBB7
:10294000D07106EB6101CEB2641C2078202802DB36
:1029500020787E28E5DDBDE8F88170B505460C4697
:10296000FFF712FC782000F039FBFFF741FC1CB1A7
:10297000402000F033FB02E0002000F02FFBFFF7C7
:1029800037FC284600F02AFBFFF732FCFFF71AFC61
:1029900070BD70B504460D4694F8280020B929464C
:1029A000204600F0A2F870BD2946204600F001F84C
:1029B000F9E72DE9FF5F04468846C4F810804146D8
:1029C000E06801F0CFFB0746206C01F0EBF8CDE9A1
:1029D0000201384601F0E6F821F00041CDE900019E
:1029E000DDE9022301F04EF800D80027384661697E
:1029F00001F0B8FB8346216801F0ACFA814694F8F7
:102A00004800D8B194F84C0080B1206D01F0CAF8AC
:102A1000CDE90201384601F0C5F821F00041CDE9C9
:102A20000001DDE9022301F02DF805D23946606886
:102A300001F090FA054602E0002500E0002594F838
:102A4000490068B394F84A00B8B14FF0804061691A
:102A500001F080FA3946019001F079FB8346A169C3
:102A600001F0CCF80390616CA06801F073FA029059
:102A7000039901F06FFA064613E04FF08040616958
:102A800001F068FA3946029001F061FB8346A169C2
:102A900001F0B4F80390A16801F05CFA064600E08A
:102AA00000262946484601F0A9F88346314601F040
:102AB000A5F882465146606A01F0A0F86062216B79
:102AC000606A01F013FB02D2206B606206E0616B6A
:102AD000606A01F00BFA01D2606B60626069A0610C
:102AE0006761606A04B0BDE8F09F2DE9FF5F0446AE
:102AF0008B46C4F810B05946E06801F033FB8146BC
:102B0000206C01F04FF807468846484601F04AF825
:102B100021F000413A464346CDE9000100F0B2FF02
:102B200001D84FF000094946206801F013FA0390DC
:102B300094F84800002831D094F84C0080B1206D02
:102B400001F030F807468846484601F02BF821F09E
:102B500000413A464346CDE9000100F093FF17D209
:102B60004846E16A01F0F6F90746E16901F046F8E6
:102B7000E061A16BE06901F0B9FA02D2A06BE061FB
:102B800006E0E16BE06901F0B1F901D2E06BE061D0
:102B9000E169606801F0DEF9054600E0002594F87F
:102BA000490070B394F84A00E0B14846616901F009
:102BB000D9FA0090E16A01F08FF880464FF07E501C
:102BC000616C01F0CFFA4146019001F0C3F907466C
:102BD000216A606C01F0BEF93946029001F00EF8EE
:102BE000206208E04846616901F0BCFA0746E16AE4
:102BF00001F072F82062216AA06801F0ABF9064684
:102C000000E000262946039800F0F8FF0746314609
:102C100000F0F4FF82465046216B01F067FA16D2AD
:102C2000D4F830A094F84B0060B394F8480048B34F
:102C30000021484601F05AFA24D24846E16A01F0E0
:102C400089F90746E16901F082FAE0611AE050462D
:102C5000616B01F04BF915D2D4F834A094F84B0015
:102C600080B194F8480068B10021484601F03EF96F
:102C700008D24846E16A01F06DF90746E16901F0C2
:102C800066FAE061C4F81490C4F824A0504604B079
:102C9000BDE8F09F70B5DDE90445016042608360E6
:102CA00080F82840C5620026C660066146618661DC
:102CB000C661066246620D4E06630D4E46630B4EBC
:102CC00086630B4EC663002606640A4E46640126E0
:102CD00080F8486080F8496080F84A6080F84B606E
:102CE00080F84C60044E066570BD00000000C842CC
:102CF0000000C8C2CDCCCC3D000020410021416184
:102D00008161C16101624162704770B504460D4640
:102D100016463146284601F0E9F810D2656326636D
:102D2000216B606A01F0E2F902D2206B606206E07A
:102D3000616B606A01F0DAF801D2606B606270BDAD
:102D4000C16070477047000010B5FFF7FFFA0446F6
:102D500004B910BD5248007820B1012840D00228A3
:102D600076D18FE0032C01D0042C1DD1032C05D18A
:102D70004C480078401C4B49087004E049480078F2
:102D8000401E4849087047480078042803DD0020A9
:102D90004449087023E04348007800BB042C1ED14E
:102DA0000420404908701AE0052C18D13D480078ED
:102DB00001280ED13C483D4908603A480078FEF7AA
:102DC000B5FE022036490870FEF776FB38490860E8
:102DD00005E03448007810B10120314908705BE00B
:102DE000032C22D133493148006800F007FF2F49F6
:102DF00008602C480078022809D12F492B48006828
:102E000001F074F903D22C482849086039E02548BC
:102E10000078032835D129492448006801F066F973
:102E20002FD22648214908602BE0042C11D12149DA
:102E30001E48006801F096F91C49086000211B48F3
:102E4000006801F053F81CD200201849086018E00F
:102E500021E0052C10D113480078FEF767FE1348D7
:102E600001681748FEF788FD02200D490870FEF73B
:102E700023FB0F49086004E0012C02D1002008491F
:102E8000087009E0012C05D10D48FEF7B1FD0020C6
:102E90000349087000E000BF00BF00BF59E7000011
:102EA0000000002001000020000034420400002047
:102EB000080000200000A0400000B442000034439D
:102EC0004C00002029B1064AD2690243044BDA6162
:102ED00004E0034AD2698243014BDA617047000083
:102EE0000010024029B1064A92690243044B9A61DC
:102EF00004E0034A92698243014B9A6170470000E3
:102F00000010024030B500210022002400232D4D86
:102F10006D6805F00C0121B1042905D0082923D1E1
:102F200005E0294D056022E0274D05601FE0254D95
:102F30006D6805F47012234D6D6805F48034022528
:102F400005EB92421CB9214D554305600BE01D4D28
:102F50006D6805F400351DB11C4D5543056002E058
:102F6000194D5543056002E0174D056000BF00BFD5
:102F7000144D6D6805F0F0010909154D6B5C05688D
:102F8000DD4045600F4D6D6805F4E061090A104DA4
:102F90006B5C4568DD4085600A4D6D6805F46051E5
:102FA000C90A0B4D6B5C4568DD40C560054D6D6819
:102FB00005F44041890B074D6B5CC568B5FBF3F523
:102FC000056130BD0010024000127A0000093D008A
:102FD0002A0000203A0000207047000070B5044627
:102FE00000251DE004F0800020B120210E48FFF7ED
:102FF000C7F803E020210C48FFF7C0F8FFF712F9EB
:103000004FF480510948FFF7BBF8FFF70BF94FF475
:1030100080510648FFF7B2F86006040E681CC5B27E
:10302000082DDFDB70BD00000014014000200140CE
:1030300010B500F001F810BD0CB500200190009013
:103040003348006840F480303149086000BF3048A0
:10305000006800F4003000900198401C0190009836
:1030600018B90198B0F5A06FF1D12948006800F4B3
:10307000003010B10120009001E000200090009885
:10308000012843D12348006840F01000214908601E
:103090000846006820F0030008600846006840F019
:1030A000020008601A4840681949486008464068AC
:1030B00048600846406840F48060486008464068C0
:1030C00020F47C1048600846406840F4E8104860EE
:1030D0000846006840F08070086000BF0C48006837
:1030E00000F000700028F9D00948406820F0030083
:1030F000074948600846406840F00200486000BF49
:103100000348406800F00C000828F9D10CBD00000D
:103110000010024000200240042808D14FF0E021B6
:10312000096941F004014FF0E022116107E04FF01E
:10313000E021096921F004014FF0E022116170479C
:1031400010B5FEF771FC10BD10B51348006840F0D3
:1031500001001149086008464068104908400E49BE
:103160004860084600680E4908400B490860084658
:10317000006820F4802008600846406820F4FE00C3
:1031800048604FF41F008860FFF752FF4FF0006067
:103190000449086010BD0000001002400000FFF864
:1031A000FFFFF6FE08ED00E010B54FF4A060FFF75A
:1031B000C3F900F0F5FA4FF4E13000F091FBFFF7AE
:1031C00039F8FFF717FA00210548FEF77BF900F000
:1031D00065F90020034908700349087010BD00001C
:1031E0004C000020000000200100002010B501214B
:1031F000054800F028F830B10121034800F014F828
:103200000248FEF7BBF910BD000400404C0000204E
:1032100021B1028842F08002028004E002884FF669
:103220007F731A4002807047CA430282704721B1FF
:10323000028842F00102028004E002884FF6FE7329
:103240001A400280704730B5024600200023002457
:10325000158A05EA0103958905EA010413B10CB149
:10326000012000E0002030BD1AB183890B43838127
:1032700002E083898B4383817047000070B500248E
:1032800000220023058C4FF6EF7635400584028C32
:103290008388048B48F6FF752C404FF6FF452C4081
:1032A0000D884FF6FF7606EA05252C434FF6DF75AD
:1032B0002A400D8906EA05152A434D8806EA0515B8
:1032C0002A43154DA84202D0144DA8421DD14FF6F5
:1032D0007F752A404D894FF6FF7606EA05152A4389
:1032E0004FF6BF752A408D8806EA05152A434FF62A
:1032F000FF352B404FF2FF752B408D8906EA85057F
:103300002B43CD8906EA85052B4383800483CD8832
:103310000587028470BD0000002C0140003401408C
:103320000A460021018B4FF2FF7319404FF6FF73DD
:1033300003EA0223194301837047000070B500249B
:1033400000220023058C4FF6FF6635400584028C71
:103350008388848B4FF68F752C404FF6FC752C407C
:103360000D882C434FF6FF552A400D894FF6FF7606
:1033700006EA05252A434D8806EA05252A43154D08
:10338000A84202D0144DA8421DD14FF2FF752A4029
:103390004D894FF6FF7606EA05252A434FF6FF359D
:1033A0002A408D8806EA05252A434EF6FF752B40F4
:1033B0004DF6FF752B408D8906EA05152B43CD8907
:1033C00006EA05152B4383808483CD888587028494
:1033D00070BD0000002C0140003401400A4600216D
:1033E000818B4FF6F7731940114381837047018732
:1033F0007047818770470000002202881D4B984269
:103400000ED01D4B98420BD0B0F1804F08D01B4B13
:10341000984205D01A4B984202D01A4B984204D1D8
:103420004FF68F731A404B881A43174B984207D0B8
:10343000164B984204D04FF6FF431A40CB881A43EC
:1034400002808B8883850B8803850A4B98420BD0BA
:10345000094B984208D00E4B984205D00D4B98422C
:1034600002D00D4B984201D10B7A0386012383824F
:1034700070470000002C014000340140000400406F
:1034800000080040000C0040001000400014004004
:103490000040014000440140004801401FB50121A7
:1034A0000620FFF70FFD42F20F70ADF8080047202D
:1034B000ADF804000020ADF80A00ADF8060001A93F
:1034C0001A48FFF799FF40F2CF70ADF8080001A944
:1034D0001748FFF791FF1D208DF8000001208DF89F
:1034E00001008DF802008DF803006846FEF7ECFF3E
:1034F0001E208DF8000002208DF801008DF80200DA
:103500006846FEF7E1FF012211460848FFF7ACFECE
:10351000012211460648FFF7A7FE01210348FFF7E5
:1035200086FE01210248FFF782FE1FBD0004004015
:103530000008004010B540F225511D4800F04AF83F
:1035400010B31B4800F002F9C4B21A48008800F416
:103550000040C8B91748008800F4804060B10A2CC8
:1035600003D000201349088020E01248008840F46E
:1035700000401049088019E00D2C06D10D48008844
:1035800040F480400B49088010E00A480088C0F3EE
:103590000D0009490C5407480088401C0549088063
:1035A00008460088C72801DD0020088010BD000003
:1035B00000380140280000200001002021B182894C
:1035C00042F40052828104E082894DF6FF731A4072
:1035D0008281704770B50246002400230025002038
:1035E00040F66A16B14200D100BFC1F3421501F0A6
:1035F0001F03012606FA03F3012D02D196893340F9
:1036000006E0022D02D1168A334001E0968A33404B
:103610000C12012606FA04F41688344013B10CB1DA
:10362000012000E0002070BDF0B503460024002614
:103630000025002040F66A17B94200D100BF1846A5
:10364000C1F3421401F01F06012707FA06F5012C09
:1036500001D10C3004E0022C01D1103000E0143014
:103660001AB107682F43076002E00768AF4307609D
:10367000F0BD00002DE9F04786B005460E46002457
:10368000A24600BFA1460027B08900B100BF2F4667
:103690002C8A4CF6FF700440F08804432C82AC89DD
:1036A0004EF6F3100440B08831890843718908430D
:1036B0000443AC81AC8A4FF6FF400440B089044318
:1036C000AC8201A8FFF71EFC1F48874202D1DDF83B
:1036D00010A001E0DDF80CA0A88900F4004040B182
:1036E0000AEBCA0000EB0A1031684900B0FBF1F8A0
:1036F00007E00AEBCA0000EB0A1031688900B0FB52
:10370000F1F86420B8FBF0F004012009642101FB0A
:103710001089A88900F4004040B1322000EBC900B4
:10372000B0FBF1F000F00700044308E0322000EBAA
:1037300009106421B0FBF1F000F00F0004432C816C
:1037400006B0BDE8F08700000038014001468888D7
:10375000C0F30800704700BFFEE710B5FFF7F4FAAA
:10376000FEF7B0FE10BD490050EAC12018BF04208A
:103770004A0D18BF40F0010040F2FF72B2EB515FFA
:1037800008BF40F00200012808BF0520704730380C
:103790000A2801D2012070470020704700BF7047FF
:1037A00010B56FF00400FFF7B7FC0A4800680A493B
:1037B000B0FBF1F0094908700846007800EB4001C1
:1037C000C1EBC0104FF6FF7101EAC0000449088048
:1037D00010BD00000C00002000127A002000002024
:1037E000220000200146114A12884A434FF0E0238C
:1037F0005A6100229A611A46126942F001021A6166
:1038000000BF4FF0E022106900F001021AB100F48D
:103810008032002AF5D04FF0E022126922F0010236
:103820004FF0E0231A6100229A61704722000020C5
:1038300000BF054A128802F04002002AF9D0C2B245
:10384000014B1B1D1A8070470038014008B5FFF777
:10385000ABFCFEF77BFE01200C230FA200210090A1
:103860000846FFF755F801200C2310A20221009012
:103870000020FFF74DF811A0FCF7DAFC4FF47A7046
:10388000FFF7B0FF06E0FFF768FFFEF7B3F90A2085
:10389000FFF7A8FFF7E7000057696E642050616EDC
:1038A000656C20436F6E74726F6C00005379737493
:1038B000656D2052656164790000000057696E648F
:1038C0002050616E656C20436F6E74726F6C205374
:1038D000797374656D20537461727465640D0A00A8
:1038E00010B586B00446012144F20400FFF7FAFA4D
:1038F0004FF40070ADF8140003208DF81600182066
:103900008DF8170005A91C48FEF7A4FB4FF4806052
:10391000ADF8140004208DF8170005A91648FEF72D
:1039200099FB25208DF8000003208DF801008DF80B
:10393000020001208DF803006846FEF7C5FD0194E2
:103940000020ADF80800ADF80A00ADF80C00ADF8A5
:1039500010000C20ADF80E0001A90848FFF78AFE00
:10396000012240F225510548FFF75EFE0121034880
:10397000FFF724FE06B010BD0008014000380140EA
:1039800010B500290AD00878002807D005487844E7
:10399000FDF732F9002801D0002010BD024878441C
:1039A00010BD00009E2700009627000021F0004275
:1039B000A2F16052B2F5801F01F0004328BFD2F19E
:1039C0007F6C0BD95FEA001C43EAC20242EB5070E5
:1039D00018BF704728BF20F001007047B2F5801F64
:1039E000BCBF184670474FEA410C1CF5001F02D2BD
:1039F000084600F076BB70B500F080F80000008942
:103A0000FFF7F6BF4FF00040A0F580007047491067
:103A100058BFC1F140415B1058BFC3F140438B42D6
:103A2000EFF30080704700004FEA1153A3F5806365
:103A3000D3F11E03A8BFD3F1200C08DB4FF00042E6
:103A400042EAC12252EA505232FA03F07047094268
:103A50000BD4102BC4BF0020704703F5787CBCF159
:103A6000FF3F05D04FF0FF3070474FF00000704728
:103A700070B500F043F800BF4992248000207047E1
:103A8000F0E7000051EA030C17D41CF5801F58BF63
:103A9000BCF5801F00F10680994218BF704708BF2F
:103AA0009042704707D711F5801F58BF13F5801F4C
:103AB00019D499427047894270471CF5801F08D578
:103AC000BCF5801FF7D58B4218BF704708BF8242F4
:103AD00070474FF4001C1CEB410F38BF1CEB430F29
:103AE00001D28B42704770B500F008F8922449006B
:103AF0004FF000514FF08053FFF789BF0EF1020ED7
:103B00002EF0030E5EF8046B364205D4012A43EB17
:103B1000030515F5001F12D8012841EB010C1CF517
:103B2000001F0CD80ED14FEAD17C15F5001F0CEB0D
:103B30004C0C0CF1020C08BF4CEBD37C04E04FF0B2
:103B4000080C01E04FEAD37C0CEB4C0526FA05F695
:103B500006F00706B6F1040C06D20EEB860CBDE8A3
:103B600070404CF0010C6047DFE80CF0090B0202DA
:103B70004FF000414FF00000A1F5002170BD194643
:103B80001046012851EB010418BFD4F5001484BF7E
:103B9000002001F0004170BD0808A0F500114FEAB7
:103BA0003101704743004FEAD30C4FEA3C0C4340CD
:103BB0001FBF40070CF1605113F0FE4F70471CF01F
:103BC000006F03D100200CF0004170470CF000435F
:103BD00043EA507010B540EACC0000F03CFA00BF58
:103BE000000000924FEA0001FFF7D6BF4FF00041FE
:103BF0004FF00000A1F500217047000090EA010F8E
:103C000048BF81F0004100F1B482421A3CBF801AE3
:103C100089184FEAD0524FF07F4C1CEA410FA2EBBB
:103C2000D15318BF9CEA026F00F03B804FF0004C6C
:103C30004CEA00204CEA012121FA03FC10EB0C0CA9
:103C40001ED202F1FF325FEA1C2040EBC25038BFA7
:103C500070471CF07F0F4FEA400C18BFBCF17F4F3C
:103C600038BF7047C3F12003994008BF20F001001E
:103C7000BCF17F4F38BF7047A0F1C04000F031BAAF
:103C80004FEA3C00000A40EBC25028BF1CF0FF0F77
:103C90004FEA400CE6D018BFBCF17F4F38BF7047E9
:103CA000EAE79CEA026F05D010EA5C0F08BF00F05B
:103CB0000040704710B500F0CEF900BF64FBBE3E77
:103CC000401058BFC0F14040491058BFC1F14041B9
:103CD0008142EFF3008070474FF47F0C1CEAD01252
:103CE0001EBF1CEAD11392EA0C0F93EA0C0F00F0EE
:103CF000858090EA010F48BF42F4807240F4000CC6
:103D000041F400002CF07F4120F07F4000B581425B
:103D1000A2EB03020FF2081CACEB504EC0F1000006
:103D20009EF800E04FEA4E0E00FB0EFC38BF490043
:103D30004FEA2C1C02F5FA020CFB0EF34FEACE1EE2
:103D40004FEA112C4FEAC1210EEB635E42EB224297
:103D50000EFB0CFC4FEA1C5300FB03114FEA112C25
:103D60004FEA01310EFB0CFC4FEADC4C00FB0C115E
:103D7000C14228BF09184CEB03335DF804EB10EB8C
:103D8000410143EBC250B2F57C0F38BF704729D5D3
:103D900012F0F00F1CBF00F1C04000F0004070476F
:103DA000008182838485868788898B8C8D8E8F9114
:103DB0009293959697999A9C9D9FA0A2A3A5A7A838
:103DC000AAACAEB0B2B3B5B7B9BCBEC0C2C5C7C964
:103DD000CCCED1D4D7D9DCDFE2E6E9ECF0F3F7FAC8
:103DE000FE0000004FEA400C0CF1807CBCF17E4FDD
:103DF00028BF7047B0F1C04000F073B990EA010FDE
:103E00000CEAD11348BF42F48072624538BF634563
:103E100007D213F47F0F16D080EA010000F00040B3
:103E2000704710B500F017F9097EFC3E00F005B8A8
:103E300080EA010000F00040704780EA010000F0D5
:103E4000004000F04EB912F47F0F04BF02487047E3
:103E500080EA010000F045B90000C07F41000B0E70
:103E6000D3F19E0208D950F400034FEA032323FA4A
:103E700002F048BF4042704710B500F0ECF800BFB8
:103E800049922480002070476FF0004282EA2000AF
:103E90007047000010F0004148BF4042B0FA80F384
:103EA00010FA03F2C3F19D030BD051EAC35101EBA9
:103EB0001220530638BF704700F1010008BF20F000
:103EC00001007047B0FA80F310FA03F2C3F19D03CA
:103ED0000AD0D90501EB1220530638BF704700F114
:103EE000010008BF20F001007047000050EA010CFB
:103EF00000F113801CF5000F58BFBCF5000F01D472
:103F00008842704707D710F5000F58BF11F5000F12
:103F100015D488427047894270471CF5000F04D5BC
:103F2000BCF5000FF7D5814270474FF0807C1CEB49
:103F3000400F38BF1CEB410F01D28142704710B5D2
:103F400000F089F8922449004FF000504FF0805162
:103F5000FFF7B6BE4FF47F0C1CEAD0121EBF1CEA5E
:103F6000D11392EA0C0F93EA0C0F00F0478090EA0D
:103F7000010F48BF42F480724FF0004C4CEA002021
:103F80004CEA012102EB0302A0FB0113A2F500029F
:103F9000002918BF43F001035B0028BF4FEA330339
:103FA00042EB22425FEA132C4CEBC2502EBFBCEB1B
:103FB000436FB2F57C0F70474FEA036CBCF1004FC2
:103FC00008BF20F00100B2F57C0F38BF70470BD559
:103FD00082F0FF0212F5803FC8BF704700F1C04079
:103FE000D8BF00F00040704700F5000C5FEA4C0CB1
:103FF00048BF7047B0F1C04000F073B890EA010FBD
:104000000CEAD11348BF42F48072624538BF634561
:1040100004D280EA010000F00040704710B500F0C3
:104020001AF800BF8900013E00F007B800F009B897
:104030005FEA410C5FEA1C6C08D080EA010000F0E6
:1040400050B85FEA400C5FEA1C6CF6D14FF00040BC
:10405000A0F5800070470EF1020E2EF0030E5EF800
:10406000044B244204D44FEA4102B2F17F4F11D8ED
:104070004FEA4003B3F17F4F0CD80ED14FEAD07C0A
:10408000B2F17F4F0CEB4C0C0CF1020C08BF4CEB67
:10409000D17C04E04FF0080C01E04FEAD17C0CEB3E
:1040A0004C0324FA03F404F00704B4F1040C06D220
:1040B0000EEB840CBDE810404CF0010C6047DFE8CB
:1040C0000CF0070802024FF00040A0F5800010BD80
:1040D0000846420018BFD2F1807288BF00F000404D
:1040E00010BDFF2141EAD050C005704751EA000CD5
:1040F00000F113801CF5000F58BFBCF5000F01D470
:104100008142704707D711F5000F58BF10F5000F17
:1041100015D481427047894270471CF5000F04D5C1
:10412000BCF5000FF7D5884270474FF0807C1CEB40
:10413000410F38BF1CEB400F01D28842704780EA24
:10414000010081EA000180EA0100FFF7F8BE80F07B
:10415000004090EA010F7FF558AD81F0004100F07A
:1041600008B8000090EA010F48BF81F000413FF518
:104170004CAD421A04D882F00042A0EB0200114478
:104180004FEAD0524FF07F4C1CEA410FA2EBD153C3
:1041900018BF9CEA026F4AD04FF0004C4CEA002056
:1041A0004CEA012121FA03FCB0EB0C0C0FD412F005
:1041B000FE0F36D05FEA4C001DD5001240EBC25016
:1041C00038BF70471CF03F0F18BF70470BE0A2F1DB
:1041D00001025FEA1C2040EBC25038BF70471CF060
:1041E0007F0F18BF7047C3F12003994014BF401ED2
:1041F00020F00100704780084FEA122308BF704783
:10420000B0FA80FCA2EB0C02CCF1280C60FA0CF0A6
:1042100093EA122F04BF00EBC25070474FEAC370FD
:104220007047130A5FEADC1008BF7047F6E79CEAA4
:10423000026F04D010EA5C0F08BF0020704710B571
:10424000FFF709FF40DFF63E81F000407047FCF7C2
:104250003ABA000000003442000070420000B4424C
:104260000000F042000007430000000000000000D2
:10427000002F000000000700070000147F147F14C7
:1042800000242A7F2A12006264081323003649554D
:10429000225000000503000000001C224100000025
:1042A00041221C000014083E08140008083E0808BB
:1042B000000000A060000008080808080000606016
:1042C0000000002010080402003E5149453E000055
:1042D000427F4000004261514946002141454B3137
:1042E000001814127F10002745454539003C4A4903
:1042F0004930000171090503003649494936000675
:104300004949291E000036360000000056360000DC
:104310000008142241000014141414140000412257
:10432000140800020151090600324959513E007C2F
:104330001211127C007F49494936003E4141412219
:10434000007F4141221C007F49494941007F090902
:104350000901003E4149497A007F0808087F0000B2
:10436000417F4100002040413F01007F081422416D
:10437000007F40404040007F020C027F007F040825
:10438000107F003E4141413E007F09090906003E81
:104390004151215E007F09192946004649494931AA
:1043A0000001017F0101003F4040403F001F2040CD
:1043B000201F003F4038403F00631408146300078B
:1043C0000870080700615149454300007F414100E2
:1043D00000552A552A55000041417F000004020182
:1043E0000204004040404040000001020400002060
:1043F00054545478007F484444380038444444209E
:1044000000384444487F00385454541800087E094A
:1044100001020018A4A4A47C007F08040478000012
:10442000447D4000004080847D00007F10284400CF
:104430000000417F4000007C04180478007C0804E0
:10444000047800384444443800FC2424241800181C
:10445000242418FC007C0804040800485454542008
:1044600000043F444020003C4040207C001C204091
:10447000201C003C4030403C004428102844001CD4
:10448000A0A0A07C004464544C44141414141414CC
:104490000000000000000000000000000000FC0020
:1044A0000000000002000000000C020C02000000EE
:1044B0000000000090D0BCD0BC90000300030000BE
:1044C0001824FE448C000302070201001824D8B00F
:1044D0004C80000300010201C038E438E000010212
:1044E00002010202080600000000000000000000B7
:1044F000000000F80402000000010204000204F8B9
:1045000000000004020100009060F86090000000CC
:10451000010000002020FC2020000000010000001D
:1045200000000000000008060000000020202020FD
:104530002000000000000000000000000000000259
:10454000000000000080601C020004030000000066
:10455000F8040404F8000102020201000008FC0053
:104560000000000203020000188444241800030223
:104570000202020008042424D80001020202010001
:1045800040B088FC80000000000302003C2424248A
:10459000C400010202020100F824242CC000010220
:1045A000020201000C04E41C0400000003000000EF
:1045B000D8242424D80001020202010038444444D3
:1045C000F8000003020201000000100000000000DB
:1045D00002000000000020000000000006000000B3
:1045E000002050880402000000000102909090908A
:1045F000900000000000000000020488502000022B
:10460000010000001804C42418000000020000008B
:10461000F804E494F80001020202020000E09CF0B9
:10462000800002030000030204FC2424D8000203DB
:1046300002020100F80404040C000102020201005D
:1046400004FC0404F80002030202010004FC2474C8
:104650000C0002030202030004FC24740C00020399
:1046600002000000F0080444CC40000102020100F6
:1046700004FC2020FC040203000003020404FC04E8
:104680000400020203020200000404FC0404060405
:104690000403000004FC24D00C0402030200030203
:1046A00004FC04000000020302020203FC3CC03CC4
:1046B000FC0003000300030004FC30C4FC040203FC
:1046C00002000300F8040404F800010202020100E1
:1046D00004FC24241800020302000000F88484046F
:1046E000F80001020207050004FC2464980002039C
:1046F00002000302182424448C0003020202010079
:104700000C04FC040C0000020302000004FC000086
:10471000FC04000102020100047C80E01C04000093
:10472000030000001CE03CE01C000003000300004C
:10473000049C609C0400020300030200041CE01CB3
:1047400004000002030200000C84641C0400020345
:10475000020203000000FE02020000000704040041
:10476000000E30C00000000000010200000202FE46
:104770000000000404070000000402040000000020
:1047800000000000000000000000080808080808F9
:104790000000020000000000000000000040A0A097
:1047A000C00000010202030204FC2020C00000033C
:1047B0000202010000C0202060000001020202008D
:1047C00000C02024FC0000010202030200C0A0A0DF
:1047D000C0000001020202000020F82424040002AC
:1047E000030202000040A0A0602000070A0A0A0499
:1047F00004FC2020C0000203020003020020E400A9
:104800000000000203020000000020E4000008088D
:104810000807000004FC80E02020020302000302DD
:104820000404FC000000020203020200E020E02079
:10483000C00003000300030020E02020C0000203AA
:104840000200030200C02020C0000001020201009B
:1048500020E02020C000080F0A02010000C0202034
:10486000E0000001020A0F0820E0402020000203BF
:10487000020000000060A0A020000002020203006D
:104880000020F820000000000102020020E00020CB
:10489000E00000010202030220E02080602000000E
:1048A000030100006080E08060000003000300005E
:1048B00020608060200002030003020020E02080CE
:1048C00060200808070100000020A060200000020E
:1048D00003020200000020DE0200000000070400C6
:1048E000000000FF00000000000F00000002DE20BA
:1048F000000000040700000002010204040200009E
:1049000000000000000000000000000000000000A7
:1049100000000000000000F800000000000000336C
:104920003000000000100C06100C06000000000013
:104930000000000040C07840C0784000043F0404FC
:104940003F040400007088FC08300000001820FFBD
:10495000211E0000F008F000E018000000211C03F8
:104960001E211E0000F00888700000001E21232474
:104970001927211010160E00000000000000000092
:1049800000000000000000E0180402000000000722
:104990001820400000020418E00000000040201829
:1049A00007000000404080F0804040000202010FFC
:1049B00001020200000000F0000000000101011FE0
:1049C00001010100000000000000000080B0700044
:1049D00000000000000000000000000000010101D4
:1049E0000101010100000000000000000030300063
:1049F000000000000000000080601804006018063D
:104A00000100000000E010080810E000000F102076
:104A100020100F00001010F8000000000020203FC0
:104A2000202000000070080808887000003028244A
:104A300022213000003008888848300000182020EB
:104A400020110E000000C02010F800000007042410
:104A5000243F240000F80888880808000019212055
:104A600020110E0000E0108888180000000F1120AF
:104A700020110E0000380808C83808000000003F68
:104A8000000000000070880808887000001C2221C7
:104A900021221C0000E010080810E0000000312274
:104AA00022110F00000000C0C00000000000003014
:104AB0003000000000000080000000000000806066
:104AC00000000000000080402010080000010204E7
:104AD00008102000404040404040400004040404CE
:104AE000040404000008102040800000002010088A
:104AF00004020100007048080808F00000000030BF
:104B000036010000C030C828E810E000071827244C
:104B100023140B000000C038E0000000203C2302FA
:104B20000227382008F8888888700000203F20205D
:104B300020110E00C030080808083800071820208F
:104B40002010080008F808080810E000203F202086
:104B500020100F0008F88888E8081000203F202067
:104B60002320180008F88888E8081000203F20005B
:104B700003000000C0300808083800000718202093
:104B8000221E020008F808000008F808203F210152
:104B900001213F20000808F8080800000020203FFD
:104BA0002020000000000808F8080800C08080806D
:104BB0007F00000008F888C028180800203F200166
:104BC0002638200008F8080000000000203F2020C0
:104BD0002020300008F8F800F8F80800203F003FD7
:104BE000003F200008F830C00008F808203F2000EF
:104BF00007183F00E01008080810E0000F10202000
:104C000020100F0008F808080808F000203F2101D4
:104C100001010000E01008080810E0000F1824242B
:104C200038504F0008F8888888887000203F20009E
:104C3000030C302000708808080838000038202154
:104C400021221C00180808F8080818000000203F5E
:104C50002000000008F808000008F808001F2020C5
:104C600020201F000878880000C838080000073896
:104C70000E010000F80800F80008F800033C0700E7
:104C8000073C0300081868808068180820302C034F
:104C9000032C30200838C800C83808000000203F26
:104CA0002000000010080808C83808002038262115
:104CB00020201800000000FE020202000000007F19
:104CC00040404000000C30C0000000000000000127
:104CD0000638C00000020202FE0000000040404012
:104CE0007F00000000000402020204000000000037
:104CF00000000000000000000000000080808080B4
:104D0000808080800002020400000000000000009B
:104D10000000000000008080808000000019242234
:104D200022223F2008F8008080000000003F112070
:104D300020110E000000008080800000000E112075
:104D400020201100000000808088F800000E112053
:104D500020103F200000808080800000001F222261
:104D600022221300008080F0888888180020203FCD
:104D7000202000000000808080808000006B9494E0
:104D80009493600008F8008080800000203F21009C
:104D900000203F2000809898000000000020203F65
:104DA00020200000000000809898000000C0808053
:104DB000807F000008F8000080808000203F2402EF
:104DC0002D302000000808F8000000000020203FDF
:104DD000202000008080808080808000203F200094
:104DE0003F20003F8080008080800000203F210025
:104DF00000203F200000808080800000001F2020D5
:104E000020201F00808000808000000080FFA12003
:104E100020110E000000008080808000000E112014
:104E200020A0FF80808080008080800020203F21A3
:104E30002000010000008080808080000033242456
:104E400024241900008080E0808000000000001F02
:104E5000202000008080000000808000001F2020B3
:104E600020103F20808080000080808000010E3074
:104E70000806010080800080008080800F300C03D5
:104E80000C300F0000808000808080000020312ED8
:104E90000E312000808080000080808080818E70B4
:104EA0001806010000808080808080000021302C66
:104EB0002221300000000000807C0202000000007F
:104EC000003F404000000000FF0000000000000024
:104ED000FF0000000002027C800000000040403F14
:104EE00000000000000601010202040400000000AE
:104EF00000000000000000000000000000000000B2
:104F000000000000000000000000000000000000A1
:104F100000000000000000000000000000F0F0F0C1
:104F2000000000000000000000017F010000000000
:104F300000000000001C1C1C00000000000080603D
:104F4000301C8C60301C0C000000000000000000D1
:104F50000000000000000000000000000000000051
:104F6000000000E00000000000E000000086E69F76
:104F700086868686E69F860000011F0101010101E9
:104F80001F010100000080C06020F820E0C0000088
:104F9000000003070C18FF70E18100000000070FFC
:104FA00010107F100F07000080602060800000005C
:104FB000E02000000F3020309F70DC371030C00040
:104FC0000000100E03000718101807000000C02092
:104FD00020E0C0000000000080E01F38E88703C424
:104FE0003C040000070F1810100B070D10100800EC
:104FF00000808C4C38000000000000000000000021
:1050000000000000000000000000000000000000A0
:105010000000000000000000000080E030080400F4
:105020000000000000FEFF01000000000000000082
:105030000000030F1820400000040830E08000004A
:10504000000000000000000001FFFE000000000062
:10505000004020180F0300000000000000000000C6
:105060000000C00000000000004266663C18FF1807
:105070003C666642000000000000030000000000E3
:105080000000000000008000000000000010101070
:105090001010FF101010101000000000000003009E
:1050A0000000000000000000000000000000000000
:1050B00000000000000000000000000000808C4C98
:1050C00038000000000000000000000000000000A8
:1050D0000000000000101010101010101010100030
:1050E00000000000000000000000000000000000C0
:1050F00000000000000000000000000000000000B0
:105100000000000000001C1C1C000000000000004B
:105110000000000000000000E0380C00000000006B
:1051200080701C03000000000060380E01000000C9
:1051300000000000000080C060202060C0800000EF
:1051400000FEFF010000000001FFFE000001070E4D
:10515000181010180E0701000000808080C0E000C9
:10516000000000000000000000FFFF000000000041
:1051700000001010101F1F101010000000804020B1
:1051800020202060C0800000000303008040203801
:105190001F070000001C1A1918181818181F000003
:1051A0000080C020202060C08000000000030300B9
:1051B0001010182FE780000000070F1010101018B3
:1051C0000F070000000000000000C0E0F000000039
:1051D00000C0B088868180FFFF8080000000000052
:1051E0000010101F1F1010000000E0606060606081
:1051F0006060000000003F1008080818F0E00000A0
:1052000000070B101010101C0F030000000080C0DE
:1052100040202020E0C0000000FCFF21100808080A
:1052200018F0E0000001070C18101010080F030020
:105230000000C0E06060606060E0600000000300AB
:105240000000E0180700000000000000001F1F0021
:10525000000000000080C0602020202060C080008E
:105260000087EF2C1818303068CF830000070F0834
:1052700010101010180F07000000C0C020202020C0
:10528000C0800000001F3F604040402010FFFE0033
:1052900000000C1C101010080F030000000000009C
:1052A000000000000000000000000000000E0E0ED4
:1052B0000000000000000000001C1C1C000000009A
:1052C00000000000000000000000000000000000DE
:1052D000000C0C0000000000000000000058380026
:1052E00000000000000000000000008040201000CE
:1052F00000001028448201000000000000000000AF
:10530000000001020408100000000000000000007E
:105310000000000000848484848484848484840065
:10532000000000000000000000000000000010204D
:10533000408000000000000000000000000001822A
:1053400044281000000010080402010000000000C2
:1053500000C020201010101030E0C0000003030037
:1053600000F010080C070300000000001C1C1C00CB
:1053700000000000000000C0406020202040C0006D
:1053800000FCFF01F00E03C1FE03807F0001070E49
:1053900008111110110904020000000080E0E00073
:1053A000000000000000807C4340477FF880000040
:1053B00010181F1000000000131F1C1020E0E02038
:1053C00020202060C080000000FFFF101010101887
:1053D0002FE78000101F1F1010101010180F07006B
:1053E000000080C0402020202060E00000FCFF0181
:1053F00000000000000001000001070E181010104E
:105400000804030020E0E02020202040C0800000AD
:1054100000FFFF000000000001FFFE00101F1F1032
:10542000101018080E07010020E0E02020202020A6
:105430002060800000FFFF101010107C00000000B2
:10544000101F1F10101010101018060020E0E02090
:10545000202020206060800000FFFF101010107CD2
:1054600000000100101F1F100000000000000000DD
:10547000000080C06020202040E0000000FCFF0110
:1054800000004040C0C140400001070E181010103D
:105490000F0F000020E0E0200000000020E0E020EE
:1054A00000FFFF101010101010FFFF00101F1F1042
:1054B00000000000101F1F100000202020E0E0204E
:1054C000202000000000000000FFFF00000000009E
:1054D00000001010101F1F1010100000000000002E
:1054E000202020E0E020202000000000000000FF3D
:1054F000FF0000000060E0808080C07F3F0000006F
:1055000020E0E020000020A06020200000FFFF300D
:10551000187CE3C000000000101F1F1000000113E2
:105520001F1C181020E0E020000000000000000018
:1055300000FFFF000000000000000000101F1F100F
:10554000101010101018060020E0E0E0000000002D
:10555000E0E0E02000FF013FFEC0E01E01FFFF0091
:10556000101F1000031F0300101F1F1020E0E0C0D9
:10557000000000000020E02000FF0003071C78E08E
:105580008000FF00101F100000000000030F1F002C
:10559000000080C060202060C080000000FEFF018D
:1055A0000000000000FFFE000001070E1810101898
:1055B0000C07010020E0E0202020202060C08000B7
:1055C00000FFFF2020202020301F0F00101F1F1081
:1055D0000000000000000000000080C0602020608B
:1055E000C080000000FEFF010000000000FFFE0080
:1055F0000001070E1111133C7C67210020E0E02020
:105600002020202060C0800000FFFF101030F0D06C
:10561000080F0700101F1F10000000030F1C1010C0
:105620000080C060202020204040E00000070F0CD8
:105630001818303060E08100001F0C0810101010A6
:10564000180F07008060202020E0E02020206080EC
:105650000100000000FFFF0000000001000000004A
:10566000101F1F100000000020E0E02000000000DC
:105670000020E02000FFFF00000000000000FF000D
:1056800000070F1810101010100807002060E0E04D
:105690002000000020E060200000077FF8800080EC
:1056A0007C03000000000000071F1C070000000032
:1056B00020E0E02000E0E0200020E0200007FFF8EC
:1056C000E01FFFFCE01F00000000031F0300011F9C
:1056D00003000000002060E0A0000020E060200047
:1056E000000000038F7CF8C6010000000010181EA7
:1056F000130001171F1810002060E0E020000000D8
:1057000020E06020000001073EF8E01807000000DC
:1057100000000010101F1F1010000000008060200B
:10572000202020A0E0E0200000000000C0F03E0F9C
:105730000300000000101C1F1710101010180600A6
:105740000000000000FC0404040404000000000049
:1057500000FF00000000000000000000007F40404B
:1057600040404000000010E0000000000000000089
:1057700000000000031C608000000000000000002A
:10578000000000030C70800000000404040404FC0A
:105790000000000000000000000000FF000000000A
:1057A000000040404040407F00000000000000102A
:1057B000080C040C081000000000000000000000AD
:1057C00000000000000000000000000000000000D9
:1057D00000000000000000000000000000000000C9
:1057E00000000000000000008080808080808080B9
:1057F0008080808000000004040808000000000091
:105800000000000000000000000000000000000098
:105810000000000000000000000000000000000088
:1058200000000000000098D844642424FCF8000024
:10583000000F1F18101010081F1F10180020E0F094
:1058400000000000000000000000FFFF1808040432
:105850000CF8F00000001F0F18101010180F0300B4
:1058600000000000000000000000000000E0F81848
:105870000404043C3800000000030F0C101010104A
:10588000080600000000000000000020E0F000001A
:1058900000E0F81C04040408FFFF000000030F18D8
:1058A000101010081F0F080000000000000000008A
:1058B000000000000000E0F8484444444C787000C8
:1058C0000000030F0C181010100804000000000066
:1058D00080C0602020E0C00000040404FFFF040436
:1058E00004040000000010101F1F10101000000022
:1058F000000000000000000000000000000070F840
:105900008C04048CF874040C007076CF8D8D8D8916
:10591000C87870000020E0F00000000000000000E7
:105920000000FFFF08040404FCF8000000101F1F23
:10593000100000101F1F1000000000000060600039
:10594000000000000000040404FCFC000000000053
:1059500000001010101F1F101010000000000000A9
:10596000000000606000000000000000040404FC6F
:10597000FC0000000000C0C08080C07F3F0000002D
:105980000020E0F000000000000000000000FFFF29
:1059900080C0F41C0404000000101F1F1100031F2E
:1059A0001C1010000000202020E0F000000000008B
:1059B0000000000000FFFF000000000000001010C9
:1059C000101F1F1010100000000000000000000059
:1059D0000000000004FCFC0804FCFC0804FCFC00C3
:1059E000101F1F10001F1F10001F1F1000000000BD
:1059F00000000000000000000004FCFC0808040493
:105A0000FCF8000000101F1F100000101F1F1000E6
:105A100000000000000000000000000000E0F0189E
:105A20000C04040C18F0E00000030F0C1010101010
:105A30000C0F030000000000000000000000000048
:105A40000004FCFC080404040CF8F0000080FFFFD4
:105A5000889010101C0F03000000000000000000E0
:105A60000000000000E0F81C04040408F8FC00003A
:105A700000030F1810109088FFFF80000000000046
:105A80000000000000000000040404FCFC100804F6
:105A9000040C0C001010101F1F101010000000004C
:105AA000000000000000000000000000000030784E
:105AB000CCC48484840C1C0000001E18101010112B
:105AC000190F06000000000000C0000000000000E8
:105AD00000040404FFFF04040400000000000000B0
